:04000000EAEF1EF015
:1000080000C016F001C015F09DAA09D09EAA07D01D
:100018009E9A2FEC1EF000C0D5F00001D481F2A208
:100028000BD00001F2928D72DA4BDB2B530ED36F9B
:10003800010E626F000E636FF0A00BD00001F0900C
:100048008D70DC4BDD2B420ED36F010E626F000EFC
:0C005800636F16C000F015C001F011002D
:0E006400026A016A006A086A036A000E12004E
:100072000B840BAE44EF00F0010E036E026A016ABC
:0A008200006A0A360232FF0E120077
:08008C000AAE029E000E1200F4
:100094000B820BAE54EF00F003680268016800683D
:0800A4000A360232FF0E1200C1
:1000AC000CB098EF00F00CA23EEF01F00E6A000EBF
:1000BC000264AFEF00F0F00E0214D8A47AEF00F057
:1000CC00023A01380F0B02260138F00B016E003892
:1000DC000F0B01260038F00B006E08380F0B0026B2
:1000EC000838F00B086E0E84D89002BE93EF00F027
:1000FC0008360036013602360E2A02BE93EF00F0A7
:10010C0008360036013602360E2A02BE93EF00F096
:10011C0008360036013602360E2A0E50036434EFD0
:10012C0001F0035E0BBC08AE39EF01F0D880800EF5
:10013C0008640030000E002201220222D8A039EF00
:10014C0001F0023201320032034A3EEF01F039EF86
:10015C0001F001C002F000C001F008C000F0086A14
:10016C00000E0E860264E6EF00F0F00E0214D8A426
:10017C00CEEF00F0023A01380F0B02260138F00BDB
:10018C00016E00380F0B01260038F00B006E0E8448
:10019C00D89002BE93EF00F00036013602360E2ADC
:1001AC0002BE93EF00F00036013602360E2A02BE74
:1001BC0093EF00F00036013602360E2A93EF00F072
:1001CC0001C002F000C001F0006A000E0E960E880D
:1001DC00026413EF01F0F00E0214D8A4FEEF00F04D
:1001EC00023A01380F0B02260138F00B016E0E8417
:1001FC00D89002BE93EF00F0013602360E2A02BEF2
:10020C0093EF00F0013602360E2A02BE93EF00F097
:10021C00013602360E2A93EF00F001C002F0016A9B
:10022C00000E0E86026443EF01F0F00E0214D8A407
:10023C0022EF01F0023A0E84D89002BE93EF00F048
:10024C0002360E2A02BE93EF00F002360E2A02BED0
:10025C0093EF00F002360E2A93EF00F0010E0C6EB5
:10026C0002DF46EF01F0020E0C6E0ADF46EF01F0E2
:10027C00040E0C6E09DF46EF01F0080E0C6EECDE7E
:02028C0012005E
:10028E00025006180E6E086A096A0B6A035007645C
:10029E003AEF02F006500A6E068E028E03500B6E77
:1002AE000750036E000E0B648AEF01F00B50075ED1
:1002BE00D8B42BEF02F0070E0764F9EF01F0075EDA
:1002CE0000C008F001C000F002C001F0026A074E43
:1002DE002BEF02F00764CEEF01F0075E00C008F0CE
:1002EE0001C000F0016A074E2BEF02F00764ACEF7D
:1002FE0001F0075E00C008F0006A074E2BEF02F017
:10030E00076493EF01F00AC002F005C001F004C0CB
:10031E0000F0086A54EF03F0030E07649EEF01F03D
:10032E00075E08380F0B086E074E2BEF02F0D890C1
:10033E000832074E2BEF02F0D8900832074E2BEF03
:10034E0002F0D89008322BEF02F0030E0764BDEFD7
:10035E0001F0075E08380F0B086E0038F00B082608
:10036E0000380F0B006E074E2BEF02F0D8900032C4
:10037E000832074E2BEF02F0D89000320832074EAB
:10038E002BEF02F0D890003208322BEF02F0030E62
:10039E000764E5EF01F0075E08380F0B086E0038B2
:1003AE00F00B082600380F0B006E0138F00B0026FC
:1003BE0001380F0B016E074E2BEF02F0D890013271
:1003CE0000320832074E2BEF02F0D8900132003285
:1003DE000832074E2BEF02F0D8900132003208326D
:1003EE002BEF02F0030E076416EF02F0075E0838DB
:1003FE000F0B086E0038F00B082600380F0B006E3E
:10040E000138F00B002601380F0B016E0238F00B8D
:10041E00012602380F0B026E074E2BEF02F0D8901A
:10042E000232013200320832074E2BEF02F0D89022
:10043E000232013200320832074E2BEF02F0D89012
:10044E000232013200320832096A000E0EAE1FEF80
:10045E0003F0081E001E011E021E082A00220122A1
:10046E0002221FEF03F00750D8A440EF02F054EF22
:10047E0003F0096A02C00AF0028E068E0750035C72
:10048E00076ED8B412EF03F0070E0764E0EF02F028
:10049E00075E0450096E0550046E0650056E066A1E
:1004AE00074E12EF03F0070E0764B5EF02F0075E7A
:1004BE000450096E0550046E056A074E12EF03F0E4
:1004CE00070E076493EF02F0075E0450096E046A8C
:1004DE00074E12EF03F0070E07647AEF02F00AC020
:1004EE0002F054EF03F0030E076485EF02F0075E8F
:1004FE0009380F0B096E074E12EF03F0D890093230
:10050E00074E12EF03F0D8900932074E12EF03F0A8
:10051E00D890093212EF03F0030E0764A4EF02F035
:10052E00075E09380F0B096E0438F00B09260438E4
:10053E000F0B046E074E12EF03F0D89004320932FF
:10054E00074E12EF03F0D89004320932074E12EF25
:10055E0003F0D8900432093212EF03F0030E076451
:10056E00CCEF02F0075E09380F0B096E0438F00B62
:10057E00092604380F0B046E0538F00B04260538D7
:10058E000F0B056E074E12EF03F0D89005320432B2
:10059E000932074E12EF03F0D890053204320932B9
:1005AE00074E12EF03F0D89005320432093212EFE3
:1005BE0003F0030E0764FDEF02F0075E09380F0B20
:1005CE00096E0438F00B092604380F0B046E05383B
:1005DE00F00B042605380F0B056E0638F00B0526BA
:1005EE0006380F0B066E074E12EF03F0D890063248
:1005FE00053204320932074E12EF03F0D89006325C
:10060E00053204320932074E12EF03F0D89006324B
:10061E00053204320932086A000E0EAE1FEF03F0E7
:10062E00091E041E051E061E092A04220522062284
:10063E0009500826045000220550012206500222BD
:10064E000EBE36EF03F0D8A045EF03F002320132B2
:10065E0000320832033E45EF03F04FEF03F0D8B0FF
:10066E004AEF03F0000E081E001E011E021E082A8D
:10067E000022012202220A7E4AEF03F0010E0C6EC6
:10068E000EDD56EF03F0020E0C6E09DD56EF03F091
:10069E00040E0C6EF8DC56EF03F0000E0C6E12001A
:1006AE000D6A086A0050D8B4000C04180A6E0ABE0F
:1006BE000D1E0B6A04AE02D0041E042A00AE02D038
:1006CE00001E002A005004100A6E0ABE1FD00450ED
:1006DE00085E003600340836045008260036060E32
:1006EE000C6E00340836045000B0085E00A00826D8
:1006FE0000360C2EF6D700A008260BB015D00DAE86
:10070E00000C001E002A081E082A000C04AE09D098
:10071E0000BE04D00050086E006AF1D7006A002AAD
:10072E00000C001E0B2AD3D7082A0450085CD8A44C
:0E073E00E6D7086A002A00AEE2D7FF0C1200D0
:10074C000134083609360450085E0550D8A0053C23
:10075C00095E003601360F0E0C6E01340836093670
:10076C00045000A006D0085E0550D8A0053C095ED8
:10077C0005D008260550D8B0053C092600360136B0
:10078C000C2EEBD700B006D0045008260550D8B07C
:08079C00053C092600001200D3
:1007A400086A096A000E0762036457EF04F00250F6
:1007B40006180A6E075003267E0ED8A0E8EF03F051
:1007C400035ED8B05CEF04F0ECEF03F0035ED8A056
:1007D40061EF04F0028E068E02C00EF001C00BF031
:1007E40000C00DF000500402F4CF0CF001500502DB
:1007F400F4CF00F0F3CF08F00402F3500C26F450C9
:100804000822000E00220D500502F3500C26F4506D
:100814000822000E002202500402F3500826F4506D
:10082400002202500502016A000E0122F350002644
:10083400F45001220D500602F3500826F450002211
:10084400026A000E012202220B500602F350002617
:10085400F4500122000E02220E500602F35001262B
:10086400F450022202BE3FEF04F00836003601368F
:1008740002360306D8B461EF04F052EF04F0D880D6
:10088400800E08640030000E002201220222D8A04B
:1008940052EF04F0023201320032034A5CEF04F0FA
:1008A4000AAE029E000E64EF04F0010E32EC00F07A
:1008B40064EF04F0020E4AEC00F064EF04F0040E5E
:0608C40039EC00F0120007
:1008CA000B800BAE71EF04F0026A0AAEFF0E026EE5
:0C08DA00016E006E0A360232FF0E1200A2
:0808E6000B6A0B86FF0E1200E5
:1008EE00086A080E0C6E003408360450085ED8B044
:0E08FE0002D00826D89000360C2EF5D7120036
:10090C000B6A0A6A096A086A0E6A033408360450CC
:10091C00085E0550D8A0053C095E0650D8A0063CE0
:10092C000A5E0750D8A0073C0B5EE86AD8A0010EFF
:10093C000E5E0336070E0C6E0334083609360A3683
:10094C000B360E36045003A012D0085E0550D8A00A
:10095C00053C095E0650D8A0063C0A5E0750D8A09C
:10096C00073C0B5EE86AD8A0010E0E5E11D008267B
:10097C000550D8B0053C09260650D8B0063C0A26CE
:10098C000750D8B0073C0B26E86AD8B0010E0E26EB
:10099C0003360C2ED1D70234083609360A360B36FC
:1009AC000E36045003A012D0085E0550D8A0053CAA
:1009BC00095E0650D8A0063C0A5E0750D8A0073C3A
:1009CC000B5EE86AD8A0010E0E5E11D00826055009
:1009DC00D8B0053C09260650D8B0063C0A2607506C
:1009EC00D8B0073C0B26E86AD8B0010E0E260236AA
:1009FC00070E0C6E0234083609360A360B360E36E4
:100A0C00045002A012D0085E0550D8A0053C095E27
:100A1C000650D8A0063C0A5E0750D8A0073C0B5ED7
:100A2C00E86AD8A0010E0E5E11D008260550D8B089
:100A3C00053C09260650D8B0063C0A260750D8B00B
:100A4C00073C0B26E86AD8B0010E0E2602360C2E97
:100A5C00D1D70134083609360A360B360E36045017
:100A6C0002A012D0085E0550D8A0053C095E0650C5
:100A7C00D8A0063C0A5E0750D8A0073C0B5EE86A7B
:100A8C00D8A0010E0E5E11D008260550D8B0053C3A
:100A9C0009260650D8B0063C0A260750D8B0073CA9
:100AAC000B26E86AD8B0010E0E260136070E0C6E26
:100ABC000134083609360A360B360E36045001A0BE
:100ACC0012D0085E0550D8A0053C095E0650D8A08F
:100ADC00063C0A5E0750D8A0073C0B5EE86AD8A01B
:100AEC00010E0E5E11D008260550D8B0053C092623
:100AFC000650D8B0063C0A260750D8B0073C0B2647
:100B0C00E86AD8B0010E0E2601360C2ED1D700346F
:100B1C00083609360A360B360E36045001A012D0B0
:100B2C00085E0550D8A0053C095E0650D8A0063CCE
:100B3C000A5E0750D8A0073C0B5EE86AD8A0010EED
:100B4C000E5E11D008260550D8B0053C092606507B
:100B5C00D8B0063C0A260750D8B0073C0B26E86AEA
:100B6C00D8B0010E0E260036070E0C6E0034083677
:100B7C0009360A360B360E36045000A012D0085E29
:100B8C000550D8A0053C095E0650D8A0063C0A5E6C
:100B9C000750D8A0073C0B5EE86AD8A0010E0E5E89
:100BAC0011D008260550D8B0053C09260650D8B0FF
:100BBC00063C0A260750D8B0073C0B26E86AD8B08A
:100BCC00010E0E2600360C2ED1D700B00ED00450DC
:100BDC0008260550D8B0053C09260650D8B0063C6E
:0C0BEC000A260750D8B0073C0B26120068
:100BF8006E0E01012B5DD8A0C3D0640E046E2BC10C
:100C080000F071DE120E0024056E066A000E062240
:100C180005C000F006C001F0000E06BEFF0E026E11
:100C2800036E003600900136023603360036009017
:100C38000136023603360C0E0024F66E400E0120F3
:100C4800F76E000E0220F86E0900F5CF00F00900DB
:100C5800F5CF01F00900F5CF02F00900F5CF03F058
:100C6800000E046E000E056E000E066E7E0E076EF8
:100C780095DD00C02CF101C02DF102C02EF103C09A
:100C88002FF1640E046E2BC100F02DDE08C000F0B9
:100C98000A0E046E28DE090E0024056E066A000E90
:100CA800062205C000F006C001F0000E06BEFF0EC9
:100CB800026E036E003600900136023603360036A7
:100CC80000900136023603360C0E0024F66E400EF4
:100CD8000120F76E000E0220F86E0900F5CF00F033
:100CE8000900F5CF01F00900F5CF02F00900F5CFB2
:100CF80003F02CC104F02DC105F02EC106F02FC160
:100D080007F04CDD00C02CF101C02DF102C02EF11E
:100D180003C02FF10A0E046E2BC100F0E4DD08C0F9
:100D280000F000C001F0000E026E036E046E013682
:100D38000190023603360436013601900236033636
:100D480004360C0E0124F66E400E0220F76E000EDB
:100D58000320F86E0900F5CF00F00900F5CF01F087
:100D68000900F5CF02F00900F5CF03F02CC104F01B
:100D78002DC105F02EC106F02FC107F00FDDACD054
:100D88002B510A08D8B07AD00A0E046E2BC100F095
:100D9800AADD090E0024056E066A000E062205C0AB
:100DA80000F006C001F0000E06BEFF0E026E036ED4
:100DB80000360090013602360336003600900136C0
:100DC800023603360C0E0024F66E400E0120F76E34
:100DD800000E0220F86E0900F5CF00F00900F5CFEB
:100DE80001F00900F5CF02F00900F5CF03F0000E7D
:100DF800046E000E056E000E066E7E0E076ECEDCCB
:100E080000C02CF101C02DF102C02EF103C02FF15A
:100E18000A0E046E2BC100F066DD08C000F000C0A9
:100E280001F0000E026E036E046E01360190023668
:100E380003360436013601900236033604360C0EAA
:100E48000124F66E400E0220F76E000E0320F86EA5
:100E58000900F5CF00F00900F5CF01F00900F5CF42
:100E680002F00900F5CF03F02CC104F02DC105F004
:100E78002EC106F02FC107F091DC2ED02BC100F057
:100E8800000E016E026E036E0036009001360236C7
:100E98000336003600900136023603360C0E002465
:100EA800F66E400E0120F76E000E0220F86E090063
:100EB800F5CF00F00900F5CF01F00900F5CF02F0F9
:100EC8000900F5CF03F0000E046E000E056E000E4B
:0A0ED800066E7E0E076E62DC12004B
:100EE200800E01012B19006E800E000A005CD8B042
:100EF2006DD12B510008016E01C02BF1800E01183B
:100F0200006E800E6E0A005CD8A0C0D0640E046E23
:100F12002BC100F057EC03F0120E0024056E000EF8
:100F220000BEFF0E066E000E062205C000F006C0CF
:100F320001F0000E06BEFF0E026E036E0036009038
:100F42000136023603360036009001360236033689
:100F52000C0E0024F66E400E0120F76E000E0220E9
:100F6200F86E0900F5CF2CF10900F5CF2DF109003B
:100F7200F5CF2EF10900F5CF2FF1640E046E2BC1CF
:100F820000F057EC03F008C000F00A0E046E57ECB4
:100F920003F0090E0024056E000E00BEFF0E066E61
:100FA200000E062205C000F006C001F0000E06BECB
:100FB200FF0E026E036E00360090013602360336D3
:100FC200003600900136023603360C0E0024F66E0F
:100FD200400E0120F76E000E0220F86E0900F5CFD8
:100FE20000F00900F5CF01F00900F5CF02F0090089
:100FF200F5CF03F02CC104F02DC105F02EC106F08F
:101002002FC107F0D2EC03F000C02CF101C02DF18A
:1010120002C02EF103C02FF10A0E046E2BC100F0A4
:1010220057EC03F008C000F000C001F0000E00BE53
:10103200FF0E026E036E046E013601900236033615
:101042000436013601900236033604360C0E0124B2
:10105200F66E400E0220F76E000E0320F86E0900B5
:10106200F5CF00F00900F5CF01F00900F5CF02F04D
:101072000900F5CF03F02CC104F02DC105F02EC1FB
:1010820006F02FC107F0D2EC03F007D2800E0A0A55
:10109200006E800E2B19005C71E20A0E046E2BC1E9
:1010A20000F057EC03F0090E0024056E000E00BE9E
:1010B200FF0E066E000E062205C000F006C001F00B
:1010C200000E06BEFF0E026E036E00360090013661
:1010D20002360336003600900136023603360C0E15
:1010E2000024F66E400E0120F76E000E0220F86E0C
:1010F2000900F5CF2CF10900F5CF2DF10900F5CF4C
:101102002EF10900F5CF2FF10A0E046E2BC100F06B
:1011120057EC03F008C000F000C001F0000E00BE62
:10112200FF0E026E036E046E013601900236033624
:101132000436013601900236033604360C0E0124C1
:10114200F66E400E0220F76E000E0320F86E0900C4
:10115200F5CF00F00900F5CF01F00900F5CF02F05C
:101162000900F5CF03F02CC104F02DC105F02EC10A
:1011720006F02FC107F0D2EC03F08FD12BC100F0A3
:10118200000E2BBFFF0E016E026E036E0036009042
:101192000136023603360036009001360236033637
:1011A2000C0E0024F66E400E0120F76E000E022097
:1011B200F86E0900F5CF00F00900F5CF01F0090043
:1011C200F5CF02F00900F5CF03F067D1800E2B199D
:1011D200006E800E6E0A005CD8A0C0D0640E046E51
:1011E2002BC100F057EC03F0120E0024056E000E26
:1011F20000BEFF0E066E000E062205C000F006C0FD
:1012020001F0000E06BEFF0E026E036E0036009065
:1012120001360236033600360090013602360336B6
:10122200D80E0024F66E3F0E0120F76E000E02204B
:10123200F86E0900F5CF2CF10900F5CF2DF1090068
:10124200F5CF2EF10900F5CF2FF1640E046E2BC1FC
:1012520000F057EC03F008C000F00A0E046E57ECE1
:1012620003F0090E0024056E000E00BEFF0E066E8E
:10127200000E062205C000F006C001F0000E06BEF8
:10128200FF0E026E036E0036009001360236033600
:1012920000360090013602360336D80E0024F66E70
:1012A2003F0E0120F76E000E0220F86E0900F5CF06
:1012B20000F00900F5CF01F00900F5CF02F00900B6
:1012C200F5CF03F02CC104F02DC105F02EC106F0BC
:1012D2002FC107F0D2EC03F000C02CF101C02DF1B8
:1012E20002C02EF103C02FF10A0E046E2BC100F0D2
:1012F20057EC03F008C000F000C001F0000E00BE81
:10130200FF0E026E036E046E013601900236033642
:10131200043601360190023603360436D80E012413
:10132200F66E3F0E0220F76E000E0320F86E0900E3
:10133200F5CF00F00900F5CF01F00900F5CF02F07A
:101342000900F5CF03F02CC104F02DC105F02EC128
:1013520006F02FC107F0D2EC03F09FD0800E0A0AEC
:10136200006E800E2B19005C71E20A0E046E2BC116
:1013720000F057EC03F0090E0024056E000E00BECB
:10138200FF0E066E000E062205C000F006C001F038
:10139200000E06BEFF0E026E036E0036009001368E
:1013A2000236033600360090013602360336D80E76
:1013B2000024F66E3F0E0120F76E000E0220F86E3A
:1013C2000900F5CF2CF10900F5CF2DF10900F5CF79
:1013D2002EF10900F5CF2FF10A0E046E2BC100F099
:1013E20057EC03F008C000F000C001F0000E00BE90
:1013F200FF0E026E036E046E013601900236033652
:10140200043601360190023603360436D80E012422
:10141200F66E3F0E0220F76E000E0320F86E0900F2
:10142200F5CF00F00900F5CF01F00900F5CF02F089
:101432000900F5CF03F02CC104F02DC105F02EC137
:1014420006F02FC107F0D2EC03F027D02BC100F039
:10145200000E2BBFFF0E016E026E036E003600906F
:101462000136023603360036009001360236033664
:10147200D80E0024F66E3F0E0120F76E000E0220F9
:10148200F86E0900F5CF00F00900F5CF01F0090070
:0C149200F5CF02F00900F5CF03F01200C6
:10149E000A6A0350D8A40A800750D8A40A820A50B8
:1014AE00D8B4B2EF0AF0030AD8B46BEF0AF00AB060
:1014BE0066EF0AF006AEB0EF0AF0AEEF0AF002AE3B
:1014CE00AEEF0AF0B0EF0AF00250800B0A6E029EE9
:1014DE000650800B069E0A18D8B47CEF0AF00A500C
:1014EE00D8B4AEEF0AF0B0EF0AF00750035CD8B4F0
:1014FE0086EF0AF0D8A0A2EF0AF0A8EF0AF0065085
:10150E00025CD8B490EF0AF0D8A0A2EF0AF0A8EFD0
:10151E000AF00550015CD8B49AEF0AF0D8A0A2EFF9
:10152E000AF0A8EF0AF00450005CD8B4B2EF0AF04B
:10153E00D8B0A8EF0AF00A52D8B4B0EF0AF0AEEF66
:10154E000AF00A52D8B4AEEF0AF0B0EF0AF0D88023
:0E155E001200D8901200D880D884120012001B
:10156C000B6A0C6A086A0350D8B43AEF0BF002C04D
:10157C000AF0028E9E0E035E03AE2AEF0BF0036C94
:10158C00080E035CD8A0F7EF0AF0036E083600C013
:10159C0008F001C000F002C001F0026A080E035C02
:1015AC00D8A0F7EF0AF0036E083600C008F001C0AF
:1015BC0000F0016A080E035CD8A0F7EF0AF0036E86
:1015CC00083600C008F0006A080E035CD8A0F7EFDC
:1015DC000AF0036E0836086A0350D8A4D89003EFBB
:1015EC000BF00350D8B403EF0BF0D8900232013259
:1015FC0000320832032EFBEF0AF00BBC08A014EFEC
:10160C000BF0D8A014EF0BF0082AD8B4002AD8B4E9
:10161C00012AD8B4022A02BE3EEF0BF00AAE3AEF12
:10162C000BF0021E011E001E081E082AD8B4002A48
:10163C00D8B4012AD8B4022A3AEF0BF0026A016A34
:10164C00006A086A3AEF0BF00B800BAE45EF0BF01B
:10165C00026A0AAE45EF0BF0026E016E006E086E68
:10166C000A36023245EF0BF00C6A000E46EF0BF017
:10167C00010E0C6E000E65EC04F046EF0BF0FF0E45
:10168C000250036E0150026E0050016E0850006E45
:02169C0012003A
:08169E00067E47EC01F012008A
:1016A6000B6A0C6A0A6A086A0350D8B4DBEF0BF0BF
:1016B600028E9E0E035E03BE66EF0BF0D8B466EF95
:1016C6000BF0CBEF0BF0036C080E035CD8A098EF81
:1016D6000BF0036E083600C008F001C000F002C02F
:1016E60001F0026A080E035CD8A098EF0BF0036EB7
:1016F600083600C008F001C000F0016A080E035C5D
:10170600D8A098EF0BF0036E083600C008F0006A08
:10171600080E035CD8A098EF0BF0036E0836086A33
:101726000350D8A4D890A4EF0BF00350D8B4A4EF7C
:101736000BF0D8900232013200320832032E9CEFB1
:101746000BF00BBC08A0B5EF0BF0D8A0B5EF0BF073
:10175600082AD8B4002AD8B4012AD8B4022A02BE6C
:10176600DFEF0BF00AAEDBEF0BF0021E011E001ED0
:10177600081E082AD8B4002AD8B4012AD8B4022AE6
:10178600DBEF0BF0026A016A006A086ADBEF0BF016
:101796000B800BAEE5EF0BF0026A0AAEE5EF0BF03D
:1017A600026E016E006E086E0A360232E5EF0BF02D
:1017B600000E0C6AE6EF0BF0010E0C6E65EC04F001
:1017C600E6EF0BF0FF0E0250036E0150026E005062
:0817D600016E0850006E1200C4
:1017DE000050086E0150006E0250016E0350026EF2
:1017EE00036A0B6A0C6A9E0E036E0A6A020E0C6E78
:0617FE0056EC00F01200A1
:1018040001012B51390806E3300E2B5D03E3010E71
:08181400006E01D0006A120011
:10181C0003500718D8A422EF0CF002500618D8A4D5
:10182C0022EF0CF001500518D8A422EF0CF0005058
:0E183C000418D8B4D8841200D89412001200F8
:10184A000B6A0A6A096A00500402F4CF09F0F3CF5E
:10185A0008F001500502F4CF0BF0F3CF0AF0005064
:10186A000502F3500926F4500A22E86A0B220150B5
:10187A000402F3500926F4500A22E86A0B2208C02F
:10188A0000F009C001F00AC002F00BC003F0120018
:10189A000450000A12E10550000A0FE10650000A3E
:1018AA000CE10750000A09E1FF0E006EFF0E016EFF
:1018BA007F0E026EFF0E036EA8D0086A096A0750EF
:1018CA00D8B4F8EF0CF00350D8B4FDEF0CF0025086
:1018DA0006180A6E028E068E0E6A02C008F001C051
:1018EA000CF000C00DF004500D5E0550D8A0053C68
:1018FA000C5E0650D8A0063C085E086A0C6A0D6A9F
:10190A00D8A08FEF0CF0D8900232013200320832A0
:10191A00010E0E6E0750035ED8A09CEF0CF07E0EEF
:10192A000E240326D8B002EF0DF0A2EF0CF07E0EC3
:10193A000E240326D8A007EF0DF0180E0B6E0D36F5
:10194A000C3608360036013602360E360450005E72
:10195A000550D8A0053C015E0650D8A0063C025EA0
:10196A0006340E120EA0BDEF0CF00D80C8EF0CF07D
:10197A00045000260550D8B0053C01260650D8B0C0
:10198A00062802260D900B2EA4EF0CF0EEEF0CF0B9
:10199A00D8900036013602360E360450005E0550E5
:1019AA00D8A0053C015E0650D8A0063C025E06346B
:1019BA000E10010B0D26D8B00C2AD8B4082AD8A4C8
:1019CA00EEEF0CF008320C320D32032AD8B402EFD3
:1019DA000DF00AAE089E0850026E0C50016E0D50B2
:1019EA00006E0AEF0DF0010E73EC04F00AEF0DF031
:1019FA00020E32EC00F00AEF0DF0040E4AEC00F091
:0C1A0A000AEF0DF0080E39EC00F012009D
:101A16000450000A08E10550000A05E1FF0E006EB9
:101A26007F0E016E58D00D6A096A086A01500010CF
:101A3600D8B4000C015005180A6E0ABE0D1E0B6ABA
:101A460005AE05D0041E051E042AD8B4052A01AE2B
:101A560005D0001E011E002AD8B4012A0150051027
:101A66000A6E0ABE10D0A6EC03F00BB020D00DAE65
:101A7600000C001E011E002AD8B4012A081E091EE9
:101A8600082AD8B4092A000C05AE0DD001BE07D02D
:101A96000150096E0050086E016A006AE8D7016AB3
:101AA600006A002A000C011E001E0B2ADDD7082A38
:101AB600D8B4092A0450085CD8A4D9D70550095CC3
:101AC600D8A4D5D7096A086A002AD8B4012A01AE73
:081AD600CED70000FF0C120046
:0C1ADE009EB801D0FDD703C1ADFF12007F
:101AEA000101236B246B176B186B05C100F006C14B
:101AFA0001F007C102F0010E0527000E0623072395
:101B0A0000C0F6FF01C0F7FF02C0F8FF0900F5CFD9
:101B1A0000F000C014F10052D8B47DEF1DF014514A
:101B2A00250A0BE003C1E1FF04C1E2FF14C1E6FF8D
:101B3A00034B042B234B242BD8D7156B166B176B2F
:101B4A00186B23D01787010E0527000E06230723DB
:101B5A0059D01781010E0527000E0623072352D0FC
:101B6A001783010E0527000E062307234BD018877B
:101B7A00010E0527000E0623072344D01785010E00
:101B8A000527000E062307233DD005C1F6FF06C12F
:101B9A00F7FF07C1F8FF0900F5CF01F001502D0A40
:101BAA00D1E005C1F6FF06C1F7FF07C1F8FF09003A
:101BBA00F5CF01F00150200ACCE005C1F6FF06C1BD
:101BCA00F7FF07C1F8FF0900F5CF01F001502B0A12
:101BDA00C7E005C1F6FF06C1F7FF07C1F8FF090014
:101BEA00F5CF01F00150230AC2E005C1F6FF06C194
:101BFA00F7FF07C1F8FF0900F5CF01F00150300ADD
:101C0A00BDE001D09ED717A301D0179117A701D025
:101C1A00179505C1F6FF06C1F7FF07C1F8FF0900CE
:101C2A00F5CF00F0000E016E00C02BF1E6DD005288
:101C3A0034E0156B166B15C100F016C101F00A0EDF
:101C4A00046E000E056EFCDD05C1F6FF06C1F7FF46
:101C5A0007C1F8FF0900F5CF02F002500024156F02
:101C6A00000E0120166F300E155F000E165B010E76
:101C7A000527000E0623072305C1F6FF06C1F7FF55
:101C8A0007C1F8FF0900F5CF00F0000E016E00C091
:101C9A002BF1B3DD0052CFE133D005C1F6FF06C107
:101CAA00F7FF07C1F8FF0900F5CF01F001502A0A32
:101CBA0027E108C1E9FF09C1EAFFEECF00F0EECF44
:101CCA0001F000C0E9FF01C0EAFFEECF15F1EECF47
:101CDA0016F108C1E9FF09C1EAFF020EEE24006EFF
:101CEA00000EEE20016E08C1E1FF09C1E2FF00C04B
:101CFA00E6FF01C0E6FF010E0527000E06230723B3
:101D0A0005C1F6FF06C1F7FF07C1F8FF0900F5CFC5
:101D1A0001F001502E0A6EE1010E0527000E06237E
:101D2A00072305C1F6FF06C1F7FF07C1F8FF09003F
:101D3A00F5CF01F001502A0A28E108C1E9FF09C1DB
:101D4A00EAFFEECF00F0EECF01F000C0E9FF01C0DC
:101D5A00EAFFEECF12F1EECF13F108C1E9FF09C194
:101D6A00EAFF020EEE24006E000EEE20016E08C19C
:101D7A00E1FF09C1E2FF00C0E6FF01C0E6FF010E74
:101D8A000527000E0623072334D0126B136B05C1F7
:101D9A00F6FF06C1F7FF07C1F8FF0900F5CF00F00B
:101DAA00000E016E00C02BF128DD005222E012C1A4
:101DBA0000F013C101F00A0E046E000E056E40DD3C
:101DCA0005C1F6FF06C1F7FF07C1F8FF0900F5CF05
:101DDA0002F002500024126F000E0120136F300E21
:101DEA00125F000E135B010E0527000E0623072360
:101DFA00CED703D0126B136B188905C100F006C148
:101E0A0001F007C102F0010E0527000E0623072381
:101E1A0000C0F6FF01C0F7FF02C0F8FF0900F5CFC6
:101E2A0014F1F9D023C100F024C101F081EF1DF0B3
:101E3A001789E3D718852ED1178B18812BD11883D0
:101E4A0029D1178D27D126D1178B178F23D108C1F6
:101E5A00E9FF09C1EAFFEECF00F0EECF01F000C0C2
:101E6A00E9FF01C0EAFFEECF1FF1EECF20F108C172
:101E7A00E9FF09C1EAFF020EEE24006E000EEE2011
:101E8A00016E08C1E1FF09C1E2FF00C0E6FF01C01F
:101E9A00E6FF000E201902E1000E1F1904E1AC0E44
:101EAA001F6F000E206F216B226B21511F25E96ED7
:101EBA0022512021EA6EEE520BE0010E2125006E1E
:101ECA00000E2221016E00C021F101C022F1EDD7DE
:101EDA00125113110AE02251135D02E12151125DE0
:101EEA0004E212C121F113C122F11651225D02E16D
:101EFA001551215D05E22151155F2251165B02D071
:101F0A00156B166B17B716D015C100F016C101F084
:101F1A00010E155F000E165B005001100BE003C1A5
:101F2A00E1FF04C1E2FF200EE66E034B042B234BB4
:101F3A00242BEAD721C102F022C103F0010E215D50
:101F4A00006E000E2259016E00C021F101C022F17B
:101F5A000250031019E01FC1E9FF20C1EAFF03C1C3
:101F6A00E1FF04C1E2FFEECFE6FF034B042B010EB3
:101F7A001F25006E000E2021016E00C01FF101C056
:101F8A0020F1234B242BD6D717A716D015C100F062
:101F9A0016C101F0010E155F000E165B005001100C
:101FAA000BE003C1E1FF04C1E2FF200EE66E034B22
:101FBA00042B234B242BEAD798D508C1E9FF09C182
:101FCA00EAFFEECF00F0EECF01F000C0E9FF01C05A
:101FDA00EAFFEECF14F108C1E9FF09C1EAFF020ED8
:101FEA00EE24006E000EEE20016E08C1E1FF09C169
:101FFA00E2FF00C0E6FF01C0E6FF140E1F6F010EEC
:10200A00206F010E216F000E226F62D7C00E1713C8
:10201A00000E18133FD01451000AD8B403D7145134
:10202A006C0AD8B405D714514C0AD8B401D7145144
:10203A00660AD8B4FFD61451450AD8B4FDD614514D
:10204A00650AD8B4FAD61451670AD8B4F8D6145126
:10205A006F0AD8B4F6D61451640AD8B4F4D6145117
:10206A00690AD8B4F0D61451700AD8B4EDD614510E
:10207A00580AD8B4E9D61451780AD8B4E6D6145115
:10208A00730AD8B4E4D61451630A97E01451750A56
:10209A00BDE0B3D7000E1715006E1851070B016E7D
:1020AA0000500110D8B424EF19F018A904D0060E74
:1020BA00126F000E136F08C1E9FF09C1EAFFEECFE4
:1020CA0000F0EECF01F000C0E9FF01C0EAFFEECF59
:1020DA0019F1EECF1AF1EECF1BF1EECF1CF108C1C8
:1020EA00E9FF09C1EAFF040EEE24006E000EEE209D
:1020FA00016E08C1E1FF09C1E2FF00C0E6FF01C0AD
:10210A00E6FF046A056A066A076A19C100F01AC17D
:10211A0001F01BC102F01CC103F04FEC0AF0010EE2
:10212A00D8B0000E006E005205E01B7F030E171395
:10213A00000E18131D6B1E6B19C100F01AC101F0B5
:10214A001BC102F01CC103F0046A056A066A076A29
:10215A000EEC0CF0000ED8A4010E006E0052D8B49A
:10216A0089D01CC100F0016A026A036AFF0E0016D8
:10217A00000E01167E0E005E000E015A00C01DF10F
:10218A0001C01EF1010E005E000E015A00C01DF1D1
:10219A0001C01EF1030E046E000E056E25EC0CF054
:1021AA0000C01DF101C01EF10A0E046E000E056E7C
:1021BA002DDC00C01DF101C01EF1800E0118026E57
:1021CA00800E025C02E1000E005C05E2010E0101D4
:1021DA001D5F000E1E5B01011D5100082B6F71EC83
:1021EA0007F019C104F01AC105F01BC106F01CC1A1
:1021FA0007F0D2EC03F000C01FF101C020F102C0C9
:10220A0021F103C022F1000E046E000E056E000ECD
:10221A00066E7F0E076E1FC100F020C101F021C1BA
:10222A0002F022C103F04FEC0AF0010ED8B0000E02
:10223A00006E005205E0010E1D5F000E1E5B1AD0F3
:10224A00000E046E000E056E200E066E820E076EDC
:10225A001FC100F020C101F021C102F022C103F028
:10226A004FEC0AF0000ED8B0010E006E005202E0E8
:10227A001D4B1E2B800E006E800E1E19005C02E1A3
:10228A001D51000803E3010E146F02D01DC114F1A1
:10229A0018B118D018A315D0800E1E19006E7F0E23
:1022AA00005C02E1FC0E1D5D0BE3800E1E19006E40
:1022BA00800E1319005C02E112511D5D01E201D08A
:1022CA0001D0EFD31251131106E018A304D0010E66
:1022DA00125F000E135B1351000802E11251080845
:1022EA0003E2080E146F02D012C114F119C100F0F2
:1022FA001AC101F01BC102F01CC103F0046A056A8D
:10230A00066A076A0EEC0CF0000ED8A4010E006EE5
:10231A000052D8B44BD11DC12BF171EC07F000C0AB
:10232A0004F001C005F002C006F003C007F019C1AD
:10233A0000F01AC101F01BC102F01CC103F04DEC00
:10234A000CF000C019F101C01AF102C01BF103C060
:10235A001CF10101145100082B6F71EC07F000C049
:10236A0004F001C005F002C006F003C007F019C16D
:10237A0000F01AC101F01BC102F01CC103F04DECC0
:10238A000CF000C025F101C026F102C027F103C0FC
:10239A0028F125C119F126C11AF127C11BF128C15B
:1023AA001CF125C100F026C101F027C102F028C1A5
:1023BA0003F053EC0BF0EFEC0BF000C004F001C09B
:1023CA0005F002C006F003C007F025C100F026C1DF
:1023DA0001F027C102F028C103F04FEC0BF0000E08
:1023EA00046E000E056E000E066E7E0E076E4FEC32
:1023FA000AF0000ED8B0010E006E00521AE019C1A0
:10240A0000F01AC101F01BC102F01CC103F0000E5A
:10241A00046E000E056E000E066E7E0E076E47EC09
:10242A0001F000C019F101C01AF102C01BF103C08A
:10243A001CF119C100F01AC101F01BC102F01CC144
:10244A0003F053EC0BF001011451010F096E0A6AF3
:10245A00000E0A2209C004F00AC005F0000E0ABEE6
:10246A00FF0E066E076E04360490053606360736EA
:10247A0004360490053606360736700E0424F66EC6
:10248A00400E0520F76E000E0620F86E0900F5CF03
:10249A0005F00900F5CF06F00900F5CF07F00900AD
:1024AA00F5CF08F00850035C08E10750025C05E12B
:1024BA000650015C02E10550005C1EE3010119C1EE
:1024CA0000F01AC101F01BC102F01CC103F0CD0ECD
:1024DA00046ECC0E056E4C0E066E7B0E076ED2ECA9
:1024EA0003F000C019F101C01AF102C01BF103C0C8
:1024FA001CF11D4B1E2B5AD019C100F01AC101F054
:10250A001BC102F01CC103F053EC0BF014C104F020
:10251A00000E056E066E076E043604900536063602
:10252A00073604360490053606360736700E04243C
:10253A00F66E400E0520F76E000E0620F86E0900B2
:10254A00F5CF05F00900F5CF06F00900F5CF07F041
:10255A000900F5CF08F00850035C08E10750025C57
:10256A0005E10650015C02E10550005C1FE2010131
:10257A0019C100F01AC101F01BC102F01CC103F01D
:10258A00000E046E000E056E200E066E820E076E99
:10259A00D2EC03F000C019F101C01AF102C01BF11C
:1025AA0003C01CF1010E1D5F000E1E5B010118A382
:1025BA0093D018B791D0800E000A006E800E1319BE
:1025CA00005C02E112510A0804E20A0E126F000EC0
:1025DA00136F19C100F01AC101F01BC102F01CC12E
:1025EA0003F053EC0BF000C01FF101C020F102C050
:1025FA0021F103C022F11F5120112111221142E0C1
:10260A000A0E046E000E056E066E076E1FC100F0FC
:10261A0020C101F021C102F022C103F086EC04F0CE
:10262A0008C000F009C001F00AC002F00BC003F0B4
:10263A00000E046E031808E10450021805E1045064
:10264A00011802E10050000A1DE1010E125F000E9E
:10265A00135B0A0E046E000E056E066E076E1FC12E
:10266A0000F020C101F021C102F022C103F086EC82
:10267A0004F000C01FF101C020F102C021F103C023
:10268A0022F1B9D7800E1319006E800E005C02E1A8
:10269A001451125D21E21251145D2B6F71EC07F097
:1026AA0000C004F001C005F002C006F003C007F044
:1026BA0019C100F01AC101F01BC102F01CC103F0DC
:1026CA004DEC0CF000C019F101C01AF102C01BF167
:1026DA0003C01CF112C114F1050E01011225006E8E
:1026EA00000E1321016E0050155F0150165B125146
:1026FA00131103E118B701D004D0010E155F000EC3
:10270A00165B030E1715006E18C101F0000E0116B4
:10271A000050011004E0010E155F000E165B17A5AC
:10272A0039D017A312D017A103D02D0E0A6F02D0E9
:10273A002B0E0A6F03C1E1FF04C1E2FF0AC1E6FFE3
:10274A00034B042B234B242B0CD017A10AD003C113
:10275A00E1FF04C1E2FF200EE66E034B042B234B7C
:10276A00242B800E006E800E1619005C02E11551B2
:10277A0000080FE203C1E1FF04C1E2FF300EE66E7A
:10278A00034B042B234B242B010E155F000E165B03
:10279A00E8D73AD017B718D0800E006E800E1619F7
:1027AA00005C02E1155100080FE203C1E1FF04C118
:1027BA00E2FF200EE66E034B042B234B242B010E63
:1027CA00155F000E165BE8D717A312D017A103D026
:1027DA002D0E0B6F02D02B0E0B6F03C1E1FF04C14C
:1027EA00E2FF0BC1E6FF034B042B234B242B0CD037
:1027FA0017A10AD003C1E1FF04C1E2FF200EE66E71
:10280A00034B042B234B242B19C100F01AC101F0EE
:10281A001BC102F01CC103F053EC0BF000C01FF106
:10282A0001C020F102C021F103C022F114C100F05D
:10283A00000E016E026E036E0036009001360236FB
:10284A00033600360090013602360336700E002435
:10285A00F66E400E0120F76E000E0220F86E090097
:10286A00F5CF04F00900F5CF05F00900F5CF06F021
:10287A000900F5CF07F01FC100F020C101F021C106
:10288A0002F022C103F086EC04F0300E002603C1E8
:10289A00E1FF04C1E2FF00C0E6FF034B042B234B18
:1028AA00242B1251131103E118B701D06FD003C1C1
:1028BA00E1FF04C1E2FF2E0EE66E034B042B234B0D
:1028CA00242B1451125F000E135B14534DE01407AE
:1028DA0014C100F0000E016E026E036E0036009005
:1028EA0001360236033600360090013602360336C8
:1028FA00700E0024F66E400E0120F76E000E0220C4
:10290A00F86E0900F5CF04F00900F5CF05F00900CB
:10291A00F5CF06F00900F5CF07F01FC100F020C17E
:10292A0001F021C102F022C103F086EC04F00A0E84
:10293A00046E000E056E066E076E86EC04F008C083
:10294A0000F009C001F00AC002F00BC003F0300E1B
:10295A00002603C1E1FF04C1E2FF00C0E6FF034B0A
:10296A00042B234B242BB1D7125113110FE003C1AF
:10297A00E1FF04C1E2FF300EE66E034B042B234B4A
:10298A00242B010E125F000E135BEED717AB0BD090
:10299A0003C1E1FF04C1E2FF450EE66E034B042BBF
:1029AA00234B242B0AD003C1E1FF04C1E2FF650EC9
:1029BA00E66E034B042B234B242B800E1E19006E4C
:1029CA00800E005C02E1000E1D5D11E21D5100083F
:1029DA001D6F1E51000E1E5703C1E1FF04C1E2FF25
:1029EA002D0EE66E034B042B234B242B0AD003C176
:1029FA00E1FF04C1E2FF2B0EE66E034B042B234BCF
:102A0A00242B0A0E046E000E056E1DC100F01EC1B5
:102A1A0001F00BEC0DF0300E002603C1E1FF04C1FA
:102A2A00E2FF00C0E6FF0101034B042B234B242BDA
:102A3A000A0E046E000E056E1DC100F01EC101F0E3
:102A4A000BEC0DF008C000F009C001F0300E0026B2
:102A5A0003C1E1FF04C1E2FF00C0E6FF0101034B2D
:102A6A00042B234B242B17A71AD0800E006E800E3E
:102A7A001619005C02E11551000811E203C1E1FFD9
:102A8A0004C1E2FF200EE66E034B042B234B242BDA
:102A9A00010E155F000E165B15511611EFE17AEF64
:102AAA000DF018A3F3D0800E1E19006E800E005C84
:102ABA0002E1000E1D5D0AE2010E1D5D006E000EB0
:102ACA001E59016E0050125F0150135B19C100F0CC
:102ADA001AC101F01BC102F01CC103F053EC0BF048
:102AEA0000C01FF101C020F102C021F103C022F190
:102AFA00010E146F14510A0A34E014C100F0000EDA
:102B0A00016E026E036E00360090013602360336FD
:102B1A0000360090013602360336700E0024F66E37
:102B2A00400E0120F76E000E0220F86E0900F5CF64
:102B3A0001F00900F5CF02F00900F5CF03F0090012
:102B4A00F5CF04F00450225D08E10350215D05E150
:102B5A000250205D02E101501F5D01E202D0142BF8
:102B6A00C9D71451125D296F000E13592A6F29C152
:102B7A0012F12AC113F11FC100F020C101F021C1D5
:102B8A0002F022C103F0EFEC0BF000C004F001C028
:102B9A0005F002C006F003C007F019C100F01AC11F
:102BAA0001F01BC102F01CC103F04FEC0BF000C096
:102BBA0025F101C026F102C027F103C028F129C17D
:102BCA002BF171EC07F025C104F026C105F027C1ED
:102BDA0006F028C107F0D2EC03F0000E046E000ED6
:102BEA00056E000E066E7E0E076E47EC01F053EC82
:102BFA000BF000C01FF101C020F102C021F103C097
:102C0A0022F11251131142E00A0E046E000E056EF3
:102C1A00066E076E1FC100F020C101F021C102F04B
:102C2A0022C103F086EC04F008C000F009C001F0EC
:102C3A000AC002F00BC003F0000E046E031808E18C
:102C4A000450021805E10450011802E10050000A7C
:102C5A001DE10A0E046E000E056E066E076E1FC198
:102C6A0000F020C101F021C102F022C103F086EC7C
:102C7A0004F000C01FF101C020F102C021F103C01D
:102C8A0022F1010E125F000E135BBBD7800E006E9D
:102C9A00800E1319005C02E112510C0816E312C1EE
:102CAA002BF1FCEC05F019C104F01AC105F01BC1A7
:102CBA0006F01CC107F047EC01F000C019F101C091
:102CCA001AF102C01BF103C01CF119C100F01AC1AC
:102CDA0001F01BC102F01CC103F0046A056A066A0E
:102CEA00076A0EEC0CF0000ED8A4010E006E00521A
:102CFA00D8B477D019C100F01AC101F01BC102F093
:102D0A001CC103F053EC0BF0000E046E031808E12B
:102D1A000450021805E10450011802E10050000AAB
:102D2A0060E1800E006E800E1E19005C02E11D51EA
:102D3A00010857E21DC12BF171EC07F000C004F045
:102D4A0001C005F002C006F003C007F019C100F087
:102D5A001AC101F01BC102F01CC103F04DEC0CF0CA
:102D6A005F0E046E700E056E090E066E810E076EFA
:102D7A004FEC0AF0010ED8B0000E006E005206E0C9
:102D8A00090E01011D5F000E1E5B05D00101080E30
:102D9A001D5F000E1E5B1DC12BF171EC07F000C018
:102DAA0004F001C005F002C006F003C007F019C123
:102DBA0000F01AC101F01BC102F01CC103F04DEC76
:102DCA000CF053EC0BF000C01FF101C020F102C05F
:102DDA0021F103C022F10101196B1A6B1B6B1C6BE9
:102DEA0038D019C100F01AC101F01BC102F01CC190
:102DFA0003F053EC0BF000C01FF101C020F102C038
:102E0A0021F103C022F11FC100F020C101F021C14C
:102E1A0002F022C103F0EFEC0BF000C004F001C095
:102E2A0005F002C006F003C007F019C100F01AC18C
:102E3A0001F01BC102F01CC103F04FEC0BF000C003
:102E4A0019F101C01AF102C01BF103C01CF11D6B7C
:102E5A001E6B010E146F14510A0A34E014C100F0FB
:102E6A00000E016E026E036E0036009001360236C5
:102E7A00033600360090013602360336700E0024FF
:102E8A00F66E400E0120F76E000E0220F86E090061
:102E9A00F5CF01F00900F5CF02F00900F5CF03F0F4
:102EAA000900F5CF04F00450225D08E10350215DCA
:102EBA0005E10250205D02E101501F5D01E202D0EE
:102ECA00142BC9D714511225006E000E1321016E5E
:102EDA001D5100261E5101220050155F0150165B3C
:102EEA0018B704D01251131101E104D0010E155F75
:102EFA00000E165B030E1715006E18C101F0000EC6
:102F0A0001160050011004E0010E155F000E165B59
:102F1A0017A539D017A312D017A103D02D0E0C6F05
:102F2A0002D02B0E0C6F03C1E1FF04C1E2FF0CC1FA
:102F3A00E6FF034B042B234B242B0CD017A10AD0FA
:102F4A0003C1E1FF04C1E2FF200EE66E034B042B2E
:102F5A00234B242B800E006E800E1619005C02E1B2
:102F6A00155100080FE203C1E1FF04C1E2FF300E70
:102F7A00E66E034B042B234B242B010E155F000E28
:102F8A00165BE8D73AD017B718D0800E006E800EBD
:102F9A001619005C02E1155100080FE203C1E1FFB6
:102FAA0004C1E2FF200EE66E034B042B234B242BB5
:102FBA00010E155F000E165BE8D717A312D017A1F2
:102FCA0003D02D0E0D6F02D02B0E0D6F03C1E1FF42
:102FDA0004C1E2FF0DC1E6FF034B042B234B242B54
:102FEA000CD017A10AD003C1E1FF04C1E2FF200EF1
:102FFA00E66E034B042B234B242B14C100F0140759
:10300A0000524CE014C100F0000E016E026E036E15
:10301A00003600900136023603360036009001363B
:10302A0002360336700E0024F66E400E0120F76E4B
:10303A00000E0220F86E0900F5CF04F00900F5CF62
:10304A0005F00900F5CF06F00900F5CF07F01FC11A
:10305A0000F020C101F021C102F022C103F086EC88
:10306A0004F00A0E046E000E056E066E076E86ECFC
:10307A0004F008C000F009C001F00AC002F00BC059
:10308A0003F0300E002603C1E1FF04C1E2FF00C0D5
:10309A00E6FF034B042B234B242BAFD7800E006E85
:1030AA00800E1E19005C02E11D5100080FE203C1E7
:1030BA00E1FF04C1E2FF300EE66E034B042B234B03
:1030CA00242B010E1D5F000E1E5BE8D7800E000A3E
:1030DA00006E800E1319005C02E11251080803E227
:1030EA00080E146F02D012C114F11451125F000EAF
:1030FA00135B145303E118B701D00AD003C1E1FFEF
:10310A0004C1E2FF2E0EE66E034B042B234B242B45
:10311A0014C12BF171EC07F019C104F01AC105F0C2
:10312A001BC106F01CC107F0D2EC03F0B6EC0AF0A2
:10313A0000C01FF101C020F102C021F103C022F139
:10314A0014534DE0140714C100F0000E016E026E14
:10315A00036E0036009001360236033600360090C0
:10316A00013602360336700E0024F66E400E012038
:10317A00F76E000E0220F86E0900F5CF04F0090080
:10318A00F5CF05F00900F5CF06F00900F5CF07F0F5
:10319A001FC100F020C101F021C102F022C103F0D9
:1031AA0086EC04F00A0E046E000E056E066E076EBB
:1031BA0086EC04F008C000F009C001F00AC002F071
:1031CA000BC003F0300E002603C1E1FF04C1E2FF89
:1031DA0000C0E6FF034B042B234B242BB1D712511B
:1031EA0013110FE003C1E1FF04C1E2FF300EE66EE6
:1031FA00034B042B234B242B010E125F000E135B8F
:10320A00EED717A71AD0800E006E800E1619005C32
:10321A0002E11551000811E203C1E1FF04C1E2FF16
:10322A00200EE66E034B042B234B242B010E155F55
:10323A00000E165B15511611EFE17AEF0DF0C00E74
:10324A001715016E18C102F0000E0216000E0218C0
:10325A0002E1000E0118D8A480D017A927D008C10E
:10326A00E9FF09C1EAFFEECF00F0EECF01F000C09E
:10327A00E9FF01C0EAFFEECF1FF1EECF20F1EECF5A
:10328A0021F1EECF22F108C1E9FF09C1EAFF040EDC
:10329A00EE24006E000EEE20016E08C1E1FF09C1A6
:1032AA00E2FF00C0E6FF01C0E6FF2FD008C1E9FF38
:1032BA0009C1EAFFEECF00F0EECF01F000C0E9FF4E
:1032CA0001C0EAFFEECF00F0EECF01F0000E01BE22
:1032DA00FF0E026E036E00C01FF101C020F102C092
:1032EA0021F103C022F108C1E9FF09C1EAFF020E78
:1032FA00EE24006E000EEE20016E08C1E1FF09C146
:10330A00E2FF00C0E6FF01C0E6FF800E2219006E50
:10331A00800E005C08E1000E215D05E1000E205DD3
:10332A0002E1000E1F5D18E2030E1713000E1813B8
:10333A00006A016A026A036A1F51005E2051015A3B
:10334A002151025A2251035A00C01FF101C020F133
:10335A0002C021F103C022F14ED017A927D008C11B
:10336A00E9FF09C1EAFFEECF00F0EECF01F000C09D
:10337A00E9FF01C0EAFFEECF1FF1EECF20F1EECF59
:10338A0021F1EECF22F108C1E9FF09C1EAFF040EDB
:10339A00EE24006E000EEE20016E08C1E1FF09C1A5
:1033AA00E2FF00C0E6FF01C0E6FF25D008C1E9FF41
:1033BA0009C1EAFFEECF00F0EECF01F000C0E9FF4D
:1033CA0001C0EAFFEECF1FF1EECF20F1000E216F10
:1033DA00226F08C1E9FF09C1EAFF020EEE24006E5E
:1033EA00000EEE20016E08C1E1FF09C1E2FF00C034
:1033FA00E6FF01C0E6FF000E131902E1000E1219E2
:10340A000FE1000E006E221908E10050211905E1B2
:10341A000050201902E11F51000A02E1124B132B3E
:10342A00C00E1715006E00C005F0AED0010E146F65
:10343A0014510A0A34E014C100F0000E016E026E43
:10344A00036E0036009001360236033600360090CD
:10345A00013602360336700E0024F66E400E012045
:10346A00F76E000E0220F86E0900F5CF01F0090090
:10347A00F5CF02F00900F5CF03F00900F5CF04F00B
:10348A000450225D08E10350215D05E10250205DF0
:10349A0002E101501F5D01E202D0142BC9D782D08C
:1034AA00010E146F1451080A34E014C100F0000E22
:1034BA00016E026E036E0036009001360236033644
:1034CA0000360090013602360336980E0024F66E56
:1034DA00400E0120F76E000E0220F86E0900F5CFAB
:1034EA0001F00900F5CF02F00900F5CF03F0090059
:1034FA00F5CF04F00450225D08E10350215D05E197
:10350A000250205D02E101501F5D01E202D0142B3E
:10351A00C9D748D0010E146F14510C0A34E014C1F3
:10352A0000F0000E016E026E036E00360090013646
:10353A000236033600360090013602360336400E54
:10354A000024F66E400E0120F76E000E0220F86E7F
:10355A000900F5CF01F00900F5CF02F00900F5CF17
:10356A0003F00900F5CF04F00450225D08E103508E
:10357A00215D05E10250205D02E101501F5D01E27B
:10358A0002D0142BC9D70ED00550000AD8B44ED792
:10359A000550C00AD8B44AD70550800A81E00550C0
:1035AA00400AB8E0800E006E800E1319005C02E13A
:1035BA001251145D03E212C114F10DD0800E1319D9
:1035CA00006E800E005C02E11451125D04E214C127
:1035DA0012F1000E136F155116110EE0030E171596
:1035EA00006E18C101F0000E01160050011004E02F
:1035FA00010E155F000E165B800E1319006E800E09
:10360A001619005C02E11551125D05E21251155FAF
:10361A001351165B02D0156B166BC40E1715016E8B
:10362A001851080B026E0250080A02E1400E0118F6
:10363A0008E11551161104E0010E155F000E165B24
:10364A001CD0C00E1715016E1851080B026E0250DD
:10365A00080A02E1800E011810E1800E006E800E49
:10366A001619005C02E11551020805E2020E155F07
:10367A00000E165B02D0156B166B17A55DD017A34B
:10368A0012D017A103D02D0E0E6F02D02B0E0E6F83
:10369A0003C1E1FF04C1E2FF0EC1E6FF034B042BA5
:1036AA00234B242B34D017A10BD003C1E1FF04C153
:1036BA00E2FF200EE66E034B042B234B242B27D06C
:1036CA00C00E1715016E1851080B026E0250080A37
:1036DA0002E1800E01181BE103C1E1FF04C1E2FF10
:1036EA00300EE66E034B042B234B242B17AB03D06F
:1036FA00580E0F6F02D0780E0F6F03C1E1FF04C19D
:10370A00E2FF0FC1E6FF034B042B234B242B155179
:10371A00161111E003C1E1FF04C1E2FF300EE66EAB
:10372A00034B042B234B242B010E155F000E165B53
:10373A0015511611EFE174D01551161113E017B790
:10374A0011D003C1E1FF04C1E2FF200EE66E034B74
:10375A00042B234B242B010E155F000E165B15510B
:10376A001611EFE117A312D017A103D02D0E106F77
:10377A0002D02B0E106F03C1E1FF04C1E2FF10C19A
:10378A00E6FF034B042B234B242B0CD017A10AD0A2
:10379A0003C1E1FF04C1E2FF200EE66E034B042BD6
:1037AA00234B242BC00E1715016E1851080B026EFD
:1037BA000250080A02E1400E01180BE103C1E1FFC1
:1037CA0004C1E2FF300EE66E034B042B234B242B7D
:1037DA0027D0C00E1715016E1851080B026E025041
:1037EA00080A02E1800E01181BE103C1E1FF04C1CE
:1037FA00E2FF300EE66E034B042B234B242B17AB50
:10380A0003D0580E116F02D0780E116F03C1E1FF79
:10381A0004C1E2FF11C1E6FF034B042B234B242B07
:10382A00800E006E800E1319005C02E11251145DC5
:10383A000BE203C1E1FF04C1E2FF300EE66E034B67
:10384A00042B234B242BECD712C100F013C101F037
:10385A00010E125F000E135B00500110D8B42AD17A
:10386A00C00E1715006E00C025F10AD112C100F072
:10387A0013C101F0000E13BFFF0E026E036E003675
:10388A0000900136023603360036009001360236C1
:10389A000336700E0024F66E400E0120F76E000EFD
:1038AA000220F86E0900F5CF04F00900F5CF05F003
:1038BA000900F5CF06F00900F5CF07F01FC100F0A7
:1038CA0020C101F021C102F022C103F086EC04F00C
:1038DA000A0E046E000E056E066E076E86EC04F084
:1038EA0008C000F009C001F00AC002F00BC003F0E2
:1038FA00300E0024146FD3D017AB45D012C100F09C
:10390A0013C101F0000E13BFFF0E026E036E0036E4
:10391A000090013602360336003600900136023630
:10392A000336980E0024F66E400E0120F76E000E44
:10393A000220F86E0900F5CF04F00900F5CF05F072
:10394A000900F5CF06F00900F5CF07F01FC100F016
:10395A0020C101F021C102F022C103F086EC04F07B
:10396A000F0E0016000E011602160316B80E0024DA
:10397A00F66E400E0120F76E000E0220F86E090066
:10398A00F5CF14F144D012C100F013C101F0000EBA
:10399A0013BFFF0E026E036E003600900136023628
:1039AA00033600360090013602360336980E00249C
:1039BA00F66E400E0120F76E000E0220F86E090026
:1039CA00F5CF04F00900F5CF05F00900F5CF06F0B0
:1039DA000900F5CF07F01FC100F020C101F021C195
:1039EA0002F022C103F086EC04F00F0E0016000E5E
:1039FA00011602160316C90E0024F66E400E0120A7
:103A0A00F76E000E0220F86E0900F5CF14F147D0C8
:103A1A0012C100F013C101F0000E13BFFF0E026EB7
:103A2A00036E0036009001360236033600360090E7
:103A3A00013602360336400E0024F66E400E01208F
:103A4A00F76E000E0220F86E0900F5CF04F00900A7
:103A5A00F5CF05F00900F5CF06F00900F5CF07F01C
:103A6A001FC100F020C101F021C102F022C103F000
:103A7A0086EC04F0070E0014146F300E14270FD0D2
:103A8A002551000AD8B4F2D62551C00AD8B4EED6C8
:103A9A002551800AD8B430D72551400AB9E003C16C
:103AAA00E1FF04C1E2FF14C1E6FF034B042B234BE1
:103ABA00242BCAD617A71AD0800E006E800E1619AC
:103ACA00005C02E11551000811E203C1E1FF04C1E3
:103ADA00E2FF200EE66E034B042B234B242B010E30
:103AEA00155F000E165B15511611EFE17AEF0DF016
:0A3AFA0023C100F024C101F0120006
:103B0400ABA202D0AB98AB889EBA01D0FDD7AECFA2
:043B140000F01200AB
:103B1800F8C0E9FFF9C0EAFFEE50000A0CE0F8C06F
:103B2800E9FFF9C0EAFFEECF03F16FEC0DF00001F9
:083B3800F84BF92BEDD7120048
:103B40000001FA6BFB6BFC6BDDDF0001FB4BFC2B18
:103B5000FA51F825D96E000EF921DA6E0050DE1800
:103B600002E1FA2B01D0FA6BFA51F825E96E000E4A
:103B7000F921EA6EEE50000AE7E1FBC000F0FCC05C
:043B800001F012003E
:103B8400FD0E0001FF6F000E0101006FF8C003F18C
:103B9400F9C004F1FAC005F1FBC006F1FCC007F15D
:103BA400FF0E086F000E096F75EC0DF000C001F1F7
:103BB40001C002F100500001F825E16E0150F92125
:0E3BC400E26EE66A01C100F002C101F01200DB
:103BD200C60E0001E26F3D0EE36FEE0EE46F000EC3
:103BE200E56F5E0EE66F3C0EE76F000EE86F000EAB
:103BF200E96FFF0EDE6FFF0EDF6F000EE06F000E4B
:103C0200E16FFF0ED66FFF0ED76F000ED86F000E5A
:103C1200D96FAC8A900EAB6E948E949C9EAA03D000
:083C2200AECF00F0FBD7120049
:103C2A009B0E0001F86F000EF96F71DF300E000174
:103C3A00EE250101036F6FEC0DF0950E0001F86F90
:103C4A00000EF96F64DF980E0001F86F000EF96F2D
:043C5A0072DF120003
:103C5E00AECF01F0ABA202D0AB98AB8801C000F0A2
:023C6E00120042
:103C70000900F5CFE6FF0006FBE10106F9E11200BD
:103C8000500E0001F86F000EF96F46DF300E000194
:103C9000EE250101036F6FEC0DF04D0E0001F86F82
:103CA000000EF96F39DF370E0001F86F000EF96F63
:043CB00047DF1200D8
:103CB400420E0001F86F000EF96F2CDFEEC0F8F031
:103CC400EFC0F9F027DF3E0E0001F86F000EF96F28
:103CD40021DFF0C0F8F0F1C0F9F01CDF3A0E00016A
:103CE400F86F000EF96F16DF5C0E0001F86F000E1E
:063CF400F96F24DF12004D
:103CFA000001F36BF46BF56BF66BF76B1F0EF86F45
:103D0A00000EF96F04DF0001EE51010A06E11B0EF5
:103D1A00F86F000EF96FFBDE06D0170E0001F86F80
:103D2A00000EF96FF4DE330E0001F86F000EF96F22
:103D3A00EEDEEFC0F8F0F0C0F9F0E9DE300E000177
:103D4A00F86F000EF96FE3DEF30E0001F86F000E54
:103D5A00F96FDA0EFA6F400EFB6F000EFC6FF1C0BE
:103D6A00FDF0F2C0FEF009DFF30EF86F000EF96FF6
:103D7A00CEDE2D0E0001F86F000EF96FC8DE5F0E61
:0C3D8A000001F86F000EF96FD6DE120089
:103D96008A0E0001F86F000EF96FBBDEA90E000156
:103DA600F86F000EF96FB5DEA60E0001F86F000E73
:103DB600F96FC3DEA4DE00503E0A01E0FBD7120015
:0E3DC600ACB202D00000FCD7EEC0ADFF120080
:103DD4006FEC20F00F0EC112070EB412816A8A6ACA
:103DE4009380846A8D6A96909692836A95808C6A91
:103DF4008D92826A8B6A9490F292F288F18CF090A0
:103E0400F086F18AA19AA08AF28EF28CB886B06A02
:103E14002A0EAF6EAC84DBDE030E0B6E8A0E0C6EC4
:103E2400550E0D6E0D2EFED70C2EFCD70B2EFAD789
:103E3400000000008290030E0B6E8A0E0C6E550E6D
:103E44000D6E0D2EFED70C2EFCD70B2EFAD70000CC
:103E5400000082801A0E0B6E5E0E0C6E6E0E0D6EDE
:103E64000D2EFED70C2EFCD70B2EFAD70000010E18
:103E7400EE6FD9DE640EEE6F000EEF6F730EF06F0F
:103E8400000EF16F15DF010EEE6F7C0EEF6F000E6A
:103E9400F06F400EF16F1F0EF26F2DDF8282010E64
:103EA400EE6FECDE76DF9E9A9D8AF28EF28C000134
:103EB4006251631105E0626B636BD3C0EEF081DF86
:103EC4000001D4A127D0D491D551400A05E18D82B7
:103ED4004F0EEE6F76DF1ED00001D551240A05E1A6
:103EE4008D92530EEE6F6DDF15D00001D551420A4D
:103EF40007E18D8083A003D0420EEE6F62DF0AD00B
:103F04000001D551430A06E18D9083B003D0430EDE
:083F1400EE6F57DFCCD7FFD799
:1040DE0010EE17F0BC0E006E010E016E1C0EF66E89
:0E40EE003F0EF76E000EF86E38EC1EF012005A
:043F1C0055445000B8
:043F200054435000B6
:0E3F240041542B43495053544152543D220006
:033F32000D0A0075
:033F3500222C003B
:043F3800222C220015
:033F3C004F4B00E8
:043F3F00220D0A0045
:043F4300222C22000A
:0B3F470041542B43574A41503D2200DB
:033F52000D0A0055
:0C3F550041542B4349504D4F44453D0062
:033F61004F4B00C3
:033F64004F4B00C0
:023F6700000058
:0F3F690043565F526F626F74696358372E36008C
:093F78004A3465346D75564700AA
:0E3F81003139322E3136382E322E31303000AA
:0B3F8F0041542B43495053454E440061
:033F9A000D0A000D
:033F9D004F4B0087
:0B3FA00041542B43574D4F44453D005A
:033FAB004F4B0079
:033FAE000D0A00F9
:073FB100286E756C6C2900FD
:083FB800EB00EA00ED00EC0053
:083FC000EA00ED00EC00EB004B
:083FC800ED00EC00EB00EA0043
:083FD000EC00EB00EA00ED003B
:103FD8000000007F000020820000488500007A88E9
:103FE80000401C8C0050438F0024749280961896D1
:103FF80020BC3E99286B6E9CF90215A0EC782DC167
:04400800CAF249E2CD
:10400C000000007FCDCC4C7B0AD723786F12037550
:10401C0017B75171ACC5276EBD37066B95BF566788
:10402C0077CC2B645F700961FFE65B5D08E53C3C77
:04403C006042221BA1
:104040000100000008000000400000000002000025
:1040500000100000008000000000040000002000AC
:104060000000000100000008000000400000000007
:10407000010000000A00000064000000E8030000E6
:1040800010270000A086010040420F008096980093
:0840900000E1F50500CA9A3BAE
:1040980001000000100000000001000000100000F6
:1040A80000000100000010000000000100000010E6
:1040B8003031323334353637383941424344454656
:0140C80000F7
:1040C9003031323334353637383961626364656685
:0140D90000E6
:0340DA0025750049
:020000040030CA
:0E000000240C3E1EFF8381FF0FC00FC00F4077
:00000001FF
