:0400000071EF00F0AC
:1000080000C016F001C015F09DAA07D09EAA05D021
:100018009E9A27D800C04FF03980F2A20AD0F292F7
:100028008D723D4A3E2A530E3A6E010E176E000E2F
:10003800186EF0A00AD0F0908D703B4A3C2A420E10
:100048003A6E010E176E000E186E16C000F015C03D
:0400580001F01100A2
:0E005C00ACB202D00000FCD754C0ADFF1200C1
:10006A00AECF01F0ABA202D0AB98AB8801C000F0D2
:02007A00120072
:10007C005C0E476E000E486E540E496E000E4A6EB2
:10008C006A0E4B6E000E4C6E000E4D6E000E4E6ED8
:10009C00FF0E3F6EFF0E406E000E416E000E426E64
:1000AC00FF0E436EFF0E446E000E456E000E466E44
:1000BC00AC8A900EAB6E948E949C9EAA03D0AECF5D
:0600CC0000F0FBD712005A
:1000D2000900F5CFE6FF0006FBE10106F9E1120097
:1000E20005EC01F00F0EC112070EB412816A8A6A82
:1000F2009380846A8D6A96909692836A95808C6AC0
:100102008D92826A8B6A9490F292F288F18CF090CE
:10011200F086F18AA19AA08AF28EF28CB886B06A31
:100122002A0EAF6EAC84A9DF030E0B6E8A0E0C6E24
:10013200550E0D6E0D2EFED70C2EFCD70B2EFAD7B8
:10014200000000008290030E0B6E8A0E0C6E550E9C
:100152000D6E0D2EFED70C2EFCD70B2EFAD70000FB
:10016200000082801A0E0B6E5E0E0C6E6E0E0D6E0D
:100172000D2EFED70C2EFCD70B2EFAD700009E9A1E
:100182009D8AF28EF28C1750181005E0176A186AD1
:100192003AC054F062DF39A024D039904F50400A5F
:1001A20005E18D824F0E546E58DF1BD04F50240A4A
:1001B20005E18D92530E546E50DF13D04F50420A18
:1001C20007E18D8083A003D0420E546E46DF09D032
:1001D2004F50430A06E18D9083B003D0430E546E14
:0601E2003CDFD1D7FFD77E
:10020A0010EE17F0220E006E010E016EE80EF66E69
:0E021A00010EF76E000EF86E69EC00F0120097
:0201E800000015
:0801EA005300520051005000C7
:0801F2005100500053005200BF
:0801FA005000530052005100B7
:080202005200510050005300AE
:020000040030CA
:0E000000000C1F1EFF8381FF0FC00FE00F409A
:00000001FF
